:100000000C948D410C9407420C9407420C940742C7
:100010000C9407420C9407420C9407420C9407423C
:100020000C9407420C9407420C9407420C9407422C
:100030000C9407420C94C1430C9401440C94074265
:100040000C9407420C9407420C9407420C9407420C
:100050000C9407420C9407420C9407420C940742FC
:100060000C9407420C9407420C9407420C940742EC
:100070008100450027FF24FF2A902B1C210C22FB26
:10008000850084008903888D81096F0244424700FE
:100090004501B083B300B10125118A4F8B035A5536
:1000A00001200101003808000000000000000000ED
:1000B00000000000000000000000000000006A478F
:1000C0006D47C647CA47D14775477A477F47D847E4
:1000D000824785478847C34700408891D2E4ADB541
:1000E000B6BEBFFF0A0602041F1C1619CD01C201CD
:1000F000464F5220524554524F4143484945564578
:100100004D454E54532E4F52470044495245435497
:100110004F5227532043555420425920434C594DA8
:10012000415800204D55534943204F464600204D2D
:1001300055534943204F4E200054494D4520424FCE
:100140004E555300534543544F5220455850555235
:10015000474154454400534F554E44200048490000
:100160004C4956455300533A0032555000315550D2
:10017000004142434445464748494A4B4C4D4E4F47
:10018000505152535455565758595A2E0047414DC5
:1001900045204F56455200504C4541534520454E51
:1001A00054455220594F5552204E414D4500322062
:1001B000504C4159455220003120504C4159455234
:1001C0002000504C415945522054574F00504C414B
:1001D000594552204F4E4500434F4E4752415455CA
:1001E0004C4154494F4E5300594F552041524520E0
:1001F000494E2054484520544F502046495645000A
:10020000454E544552494E4720534543544F5200A2
:1002100020202000202020202020202020202020FE
:100220002020200041435449564154450040204A73
:100230004F4E455320323031330020455849542029
:100240000020434F4E54494E5545200050415553D0
:100250004544000090100000911000009210000032
:1002600093100000FF2F0000904E0000914E000000
:10027000924E0000C00000C10100C20200FF060152
:100280005300912A761891257818912A781891258B
:100290007418912A731891257718912A7A18912544
:1002A0007918912A79009042721891257B18912A29
:1002B0007B1891257B18912B7C0190437617912612
:1002C0007B18912B7D1891267A18912C7A009044F6
:1002D000781891277A18912C7B1891277818912DEE
:1002E0007D00904576189128781891287A189128E1
:1002F0007B18912D730090507C0090517F189128AD
:10030000710C912A680C912D7217904C7B019128E9
:10031000720C912D730C912A6400904E7C189125DB
:10032000750C91286E0C912A6715904C7D039125D0
:10033000760C912A6F0B90567C019126760490588A
:10034000740390567310905577019121730C91238B
:10035000740B90537901912670189121720190517C
:10036000790B9126730C9128720090537C1891237D
:10037000770C9125780C91287517904C7A01912A69
:100380006F0C9128700C912D700090567D0590583F
:100390007B049056760F912873019055760B912A25
:1003A000670C912D7100905378189128730090512B
:1003B000780C912D700C912A670090537B18912531
:1003C0006F0C9128740B904C7A01912A5E1891253C
:1003D000710C912A6E0C9126740090587C18912112
:1003E0006C0C9123700C9126721891216F0C912640
:1003F000690C91286D189123720C91256C0C912831
:1004000071189123730C9128730C912579019058E0
:100410007200905A7B179120720C9123760B9058A2
:10042000780191257217905172019120740C9123DB
:10043000750C9125730190587C179120730C9123B2
:10044000790C9125770190567A179128740C91298F
:100450007202905572049056710390556903912A67
:100460007B189125770C9128730C912A7302904D7B
:10047000771691257700904E770C912A6C0C912677
:100480007A0090557A189121740C9123740C91285C
:10049000790090537B189123770C9128630C912D50
:1004A000740090557C1891286C0C912A780C912D31
:1004B00075189128750090557C0C912D700C912A1F
:1004C000710190567C17912577009055790C9128F1
:1004D000770C912A780090537818912575009051E7
:1004E000760C912A6F0C91237A0090537918911E03
:1004F000780C9121770C91237A18911E7400904EFC
:100500007E0C9123770090517A0C91287F009051B6
:100510007A189123790090507B0C9125640B904EB2
:100520007A0191287617904C79019123770C9128C4
:100530006402904C6F01904E74039050630390518D
:100540007E03912D73189128710C912A680C912DBE
:100550007217904C79019128720C912D730C912A8D
:100560006400904E7B189125750C91286E0C912A91
:10057000671891257601904C780B912A6F0C912683
:10058000760190567C069058790490566C0D912116
:1005900073019055740B9123740C91267000905345
:1005A00079189121720090517A0C9126730C912840
:1005B000720190537B179123770C9125780C912829
:1005C0007516904C7A02912A6F0C9128700A9056F9
:1005D0007402912D70049058770390566B109055CB
:1005E00076019128730C912A670A90537702912D16
:1005F0007117905176019128730C912D700B9053C7
:100600007A01912A671891256F0C9128740C912A10
:100610005E1891257100904C780C912A6E0C9126F1
:10062000740190587A1791216C0C9123700C9126CB
:10063000721891216F0C9126690C91286D189123E5
:10064000720C91256C0C912871189123730C9128D0
:10065000730C91257900905A7B189120720C91238C
:10066000760C9125720090587B179051760191205D
:10067000740C9123750C9125730190587C1791206F
:10068000730C9123790C9125770190567A17912854
:10069000740C912972039055780390566E06912A36
:1006A0007B0090556D189125770C9128730C912A39
:1006B0007301904D711791257700904E740C912A1B
:1006C0006C0B9055780191267A189121740C912326
:1006D000740C9128790090537A189123770C912803
:1006E000630C912D74009055771891286C0C912A09
:1006F000780C912D7518912875009055790C912DD5
:10070000700C912A710190567817912577019055B8
:10071000740B9128770C912A7800905376189125C4
:1007200075009051760C912A6F0B905376019123AE
:100730007A18911E780C9121770C91237A18911ECA
:10074000740190537F0B9123770C91287F00905573
:100750007D189126790190537C179125760190514F
:100760007B179123770090537318912D7900905146
:100770005F00904C7C0C904C750C9128780C912A61
:100780007600904C750C912D7800904C7C0C904C20
:10079000710C91287400904E790C912D790C912A4E
:1007A0007D00904C6E1891257A0C91287B0C912A33
:1007B0006F019045751690477D019125720C912A25
:1007C000780B90497C0191267C1190477C07912100
:1007D000770A90497C0291267B0C912879029040FF
:1007E00073169123720C9128770C9126761891211B
:1007F000730C9126770B90457A01912875189123F7
:10080000740190477B0B9128720C912D79019049CE
:100810007D0E904973099128780C912A76009047B3
:10082000790C912D780090497C1891287403904A96
:100830007B09912D790C912A7D0290497C16912596
:100840007A0C91287B0C912A6F0090497918912598
:10085000720190477C0B912A780C91267C00904580
:100860007913904776059121770C91267B01904969
:10087000790B9128790490477B149123720C91286D
:10088000770C912676189121730C9126770B90495D
:1008900079019128751891237400904A7B0C912856
:1008A000720C912D7900904C7C0C904C750C912819
:1008B000780C912A7600904C750C912D7800904C14
:1008C0007C0C904C710C91287400904E790C912DF9
:1008D000790C912A7D00904C6E1891257A0C912804
:1008E0007B0C912A6F019045751690477D019125EB
:1008F000720C912A780B90497C0191267C119047CB
:100900007C079121770A90497C0291267B0C9128E3
:100910007902904073169123720C9128770C9126DE
:1009200076189121730C9126770B90457A019128C6
:1009300075189123740190477B0B9128720C912DAF
:10094000790190497D0E904973099128780C912A7C
:1009500076009047790C912D780090497C18912869
:100960007403904A7B09912D790C912A7D0290495C
:100970007C1691257A0C91287B0C912A6F00904966
:1009800079189125720190477C0B912A780C912659
:100990007C0090457913904776059121770C91263C
:1009A0007B019049790B9128790490477B1491231E
:1009B000720C9128770C9126760090407A10904422
:1009C0006E0891217308904073049126770C91284A
:1009D0007500904A7A189123740C9128720C912D0D
:1009E000730090517B189128710C912A680C912DFD
:1009F0007217904C79019128720C912D730C912AE9
:100A00006400904E7B189125750C91286E0C912AEC
:100A1000671891257601904C780B912A6F0C9126DE
:100A2000760190567C069058790490566C0D912171
:100A300073019055740B9123740C912670009053A0
:100A400079189121720090517A0C9126730C91289B
:100A5000720190537B179123770C9125780C912884
:100A60007516904C7A02912A6F0C9128700A905654
:100A70007402912D70049058770390566B10905526
:100A800076019128730C912A670A90537702912D71
:100A90007117905176019128730C912D700B905322
:100AA0007A01912A671891256F0C9128740C912A6C
:100AB0005E1891257100904C780C912A6E0C91264D
:100AC000740190587A1791216C0C9123700C912627
:100AD000721891216F0C9126690C91286D18912341
:100AE000720C91256C0C912871189123730C91282C
:100AF000730C91257900905A7B189120720C9123E8
:100B0000760C9125720090587B17905176019120B8
:100B1000740C9123750C9125730190587C179120CA
:100B2000730C9123790C9125770190567A179128AF
:100B3000740C912972039055780390566E06912A91
:100B40007B0090556D189125770C9128730C912A94
:100B50007301904D711791257700904E740C912A76
:100B60006C0B9055780191267A189121740C912381
:100B7000740C9128790090537A189123770C91285E
:100B8000630C912D74009055771891286C0C912A64
:100B9000780C912D7518912875009055790C912D30
:100BA000700C912A71019056781791257701905514
:100BB000740B9128770C912A780090537618912520
:100BC00075009051760C912A6F0B9053760191230A
:100BD0007A18911E780C9121770C91237A18911E26
:100BE000740190537F0B9123770C91287F009055CF
:100BF0007D189126790190537C17912576019051AB
:100C00007B179123770090537318912D7900904CA6
:100C10007C0C904C750C9128780C912A7600904CA5
:100C2000750C912D7800904C7C0C904C710C912897
:100C30007400904E790C912D790C912A7D00904C86
:100C40006E1891257A0C91287B0C912A6F019045A2
:100C5000751690477D019125720C912A780B904969
:100C60007C0191267C1190477C079121770A90495D
:100C70007C0291267B0C9128790290407316912377
:100C8000720C9128770C912676189121730C91267D
:100C9000770B90457A01912875189123740190473C
:100CA0007B0B9128720C912D790190497D0E904912
:100CB00073099128780C912A76009047790C912D30
:100CC000780090497C1891287403904A7B09912DF3
:100CD000790C912A7D0290497C1691257A0C9128F5
:100CE0007B0C912A6F0090497918912572019047E9
:100CF0007C0B912A780C91267C00904579139047C3
:100D000076059121770C91267B019049790B9128EA
:100D1000790490477B149123720C9128770C9126CB
:100D2000760090407A1090446E08912173089040AC
:100D300073049126770C91287500904A7A189123B4
:100D4000740C9128720C912D7B1891287B0C912AA0
:100D50007C0C912D781891287B0C912A7B0C912D7D
:100D6000761091217F1091227F1091237D10912484
:100D70007E1091257E109132760090557F0090561E
:100D80007F18912D740C912F7B0C91327517905117
:100D90007E01912D750C9132760C912F6700905346
:100DA0007F18912A780C912D710C912F6A15905112
:100DB0007F03912A790C912F720B905B7F01912B0D
:100DC0007904905D7703905B7610905A7A019126B2
:100DD000760C9128770B90587C01912B73189126F3
:100DE000750190567C0B912B760C912D75009058C7
:100DF0007F1891287A0C912A7B0C912D78179051AD
:100E00007D01912F720C912D730C91327300905BC8
:100E10007F05905D7E04905B790F912D7601905A4D
:100E2000790B912F7A0C9132740090587B18912D88
:100E3000760090567B0C9132730C912F7A0090586B
:100E40007E18912A720C912D770B90517D01912F74
:100E50006118912A740C912F710C912B7700905D81
:100E60007F1891266F0C9128730C912B7518912681
:100E7000720C912B6C0C912D70189128750C912A85
:100E80006F0C912D74189128760C912D760C912A67
:100E90007C01905D7500905F7E179125750C9128FF
:100EA000790B905D7B01912A7517905675019125FC
:100EB000770C9128780C912A7601905D7F17912507
:100EC000760C91287C0C912A7A01905B7D17912DEC
:100ED000770C912E7502905A7504905B7403905AAA
:100EE0006C03912F7E18912A7A0C912D760C912FFC
:100EF000760290527A16912A7A0090537A0C913F9A
:100F00007F0C912B7D00905A7D189126770C9128AB
:100F1000770C912D7C0090587E1891287A0C912D99
:100F2000660C91327600905A7C18912D740C912F9A
:100F30007B0C91327517905A7C01912D750C913272
:100F4000760C912F6700905B7C18912A7801905A5B
:100F50007C0B912D710C912F7A0190587C17912A5E
:100F6000790090567D0C912F720B90587D01912B3A
:100F700079189126760C9128770C912B731891266D
:100F8000750290587D0A912B760C912D7501905A1F
:100F90007D1791287A0190587D0B912A7B0C912D19
:100FA000780190567D17912F720090587E0C912DEC
:100FB000730C9126760090567E189121790C91231E
:100FC0006D0C912677189121790C9123760C91263E
:100FD00076189121790C91236D0C91267718912127
:100FE000790C9123760C91267601904E7600904AEA
:100FF00068179121790C91236D0C91267718912116
:10100000790C9123760C91267600904E60009051D9
:1010100064189121790C91236D0C912677189121F8
:10102000790C9123760B90516700905658019126C8
:1010300076189121790C91236D0C912677189121C6
:10104000790C9123760C912676189121790C9123B5
:101050006D0C912677189121790C9123760C9126AD
:10106000760090516100905666189121790C912379
:101070006D0C912677189121790C9123760C91268D
:1010800076009051600090565A189121790C912366
:101090006D0C912677189121790C9123760C91266D
:1010A000760090515C0090565A189121790C91234A
:1010B0006D0C912677189121790C9123760B905124
:1010C000570090565201912676189121790C912360
:1010D0006D0C9126771891217914FF06014500FFC8
:1010E0002F0000904E0000914E0000924E0000C074
:1010F0000000C10100C20200FF06015300905358D6
:101100000091365000924E58059053300091362889
:101110000390515000924A58079051300390535019
:1011200000913B48009247580690533000913B286D
:1011300004904E5000924E5806904E3003904A5004
:101140000091364800924A5807904A30009136285C
:1011500003904E5000924E5806904E3003904750E8
:1011600000913B48009247580790473000913B2838
:1011700003924E58099053500091364801924A58B4
:1011800005905330009136280390515000924E58EC
:10119000079051300390535000913B4800924758BC
:1011A0000690533000913B2804904E5000924E58C8
:1011B00006904E3003904A500091364800924A58AB
:1011C00007904A300091362803904E5000924E58B6
:1011D00006904E300390475000913B48009247588C
:1011E0000790473000913B2803924E580990535086
:1011F0000091364800924A580690533000913628A4
:101200000390555000924E58079055300390565019
:1012100000913B48009247580690563000913B2879
:101220000490555000924E580490565005913648FF
:1012300000924A5805905650029136280390535018
:1012400000924E58069053300390555800913948FB
:10125000009245580690553000913928039053501C
:1012600000924C58059055500591344800924958C9
:1012700005905550019134280390515000924C58DC
:1012800007905130039053500091374800924358D3
:10129000079053300091372803904F5000924A58DE
:1012A00006904F3003904A500091324800924758C0
:1012B00007904A300091322803904F5000924A58CC
:1012C00006904F3003905350009137480092435896
:1012D000069053300091372803924A580A90535091
:1012E00000913748009247580690533000913728B4
:1012F0000490515000924A58069051300390535038
:1013000000913B48009247580790533000913B288A
:1013100003904E5000924E5806904E3003904A5023
:101320000091364800924A5807904A280091362882
:1013300002904E5001924E5806904E300390475006
:1013400000913B48009247580690473000913B2857
:1013500003924E580A9053500091364800924A58D2
:1013600006905330009136280490515000924E5808
:10137000069051300390535000913B4800924758DB
:101380000790533000913B2803904E5000924E58E6
:1013900006904E3003904A580091364800924A58C1
:1013A00006904A300091362803904E5000924E58D5
:1013B00007904E300390475000913B4800924758A9
:1013C0000690473000913B2803924E580A905350A4
:1013D0000091364800924A580690533000913628C2
:1013E0000490555000924E58069055300390565038
:1013F00000913B48009247580790563000913B2897
:101400000390555000924E5804905650059136481E
:1014100000924A5805905650019136280390535037
:1014200000924E5807905330039055500091394820
:101430000092455806905530009139280490535039
:1014400000924C58049055500591344800924958E8
:1014500005905550029134280390515000924C58F9
:1014600006905130039053500091374800924358F2
:10147000079053280091372802904F5001924A5804
:1014800006904F3003904A500091324800924758DE
:1014900006904A300091322803904F5000924A58EB
:1014A00007904F30039053500091374800924358B3
:1014B000069053300091372804924A5809904E50B4
:1014C000009139480092475807904E3000913928D2
:1014D00003904C5000924A5806904C3003904E585E
:1014E00000913E4800923E5806904E3000913E28B2
:1014F00003904A500092455807904A300390455057
:1015000000913948009242580690453000913928A0
:1015100003904A500092455807904A300390425039
:1015200000913E4800923E580690423000913E287D
:101530000492455809904E50009139480092425803
:1015400007904E300091392803904C500092455836
:1015500005904C3004904E5000913E4800923E5809
:1015600006904E3000913E2803904A500092455814
:1015700007904A30039045500091394800924258F4
:10158000069045300091392803904A500092455802
:1015900007904A300390425000913E4800923E58D6
:1015A0000790423000913E280392455809904E50D2
:1015B000009139480092425806904E3001913928E6
:1015C000029050500192455806905030039051506F
:1015D00000913E4800923E580690513000913E28BE
:1015E000039050500092455805905150059139484C
:1015F0000092425802905130039051500191392885
:1016000004904E500092455806904E300390505032
:101610000091404800924058079050300091402877
:1016200003904E50009247580590505804913B50FB
:10163000009244580490505002913B2803904C5023
:101640000092475807904C3003904E50009142480A
:1016500000923E5806904E300091422803904A5026
:101660000092455807904A300390455000913E48FB
:10167000009242580690453000913E2804904A500E
:101680000092455806904A3003904E5000914248CF
:1016900000923E5807904E300091422803924558E0
:1016A00008FF06014500FF2F0000904E0000914EFC
:1016B0000000924E0000C00000C10100C202009074
:1016C00045580091395000923E5805904550009180
:1016D000392800923E5807904A500092455806908B
:1016E0004E5000924A580D904A500091394800924D
:1016F000455806904E500091394800924A5807903C
:101700004E30009139280C904A5000913E4800928A
:10171000455807904A5000913E280092455806903F
:101720004E5000924A580790515000924E580C90DB
:101730004E5000913E4800924A58079051500091F7
:101740003E4800924E580690513000913E28069235
:101750004E000090510000913E0030FF2F0000909D
:101760004E0000914E0000924E0000C00000C101EA
:1017700000C20200904E5000924E58029045500018
:10178000913E480690453000904E5000913E280111
:1017900092515806904E300190455000913E4800BD
:1017A000924E580690453000913E280190445000DA
:1017B000913D4800924D580690443000913D2801DB
:1017C000904D500092505806904D3001904450007A
:1017D000913D4800924D580790443000913D2800BB
:1017E00090435000913C4800924C58079043300081
:1017F000913C2801904C5000924F5806904C30017B
:1018000090435000913C4800924C58069043300061
:10181000913C2801904A500091394800924E580658
:10182000904A300091392801904C5000913948007D
:10183000924F5806904C300091392801904D50003D
:101840009139500092505806904D3000913928013E
:10185000904E50009132480092515806904E300000
:10186000913228009251000691320006904E0030CD
:10187000FF2F00000000FE22000000000000001703
:10188000230000000000000006230000000000000C
:10189000001723000000000000006F1D0000000082
:1018A000000000E41B00000000000000D01B00004E
:1018B00000000000004B1900000000000000AD1AFD
:1018C000000000000000004B1900000000000000B4
:1018D000DA1C000000000000009C1B00000000005B
:1018E0000000AF1D00000000000000A41D0000006B
:1018F00000000000991D000000000000008E1D0087
:10190000000000000000831D00000000000000DA5D
:101910001C00000000000000511C0000000000003E
:1019200000F51B000000000000003822000000004D
:10193000000000CA2000000000000000871E000018
:101940000000000000631E00000000000203000809
:10195000280000F600083E01030201030201030211
:101960000103020103020104140103020103020145
:101970000302010302010302010402010302010345
:101980000201030201030201030201040A0103022E
:1019900001030201030201030201030201040A011F
:1019A0000302010302010302010302010302010415
:1019B0000A010302010302010302010302010302FF
:1019C00001040A01030201030201030201030201EF
:1019D000030201050000FF0002040000F600083EBB
:1019E00001040201040201040201040201040201D3
:1019F000030A0104020104020104020104020104B9
:101A00000201030A010402010402010402010402AA
:101A100001040201030A010402010402010402019B
:101A2000040200FF0002040000FB00083E01030264
:101A300001030201030201030201030201040A017E
:101A40000302010302010302010302010302010474
:101A50000201030201030201030201030201030266
:101A600001040A010302010302010302010302014E
:101A7000030201040A01030201030201030201033C
:101A80000201030201040A0103020103020103022D
:101A900001030201030201040A010302010302011E
:101AA000030201030201030201050000FF0002031B
:101AB0000008280009B4000A0A0000FB00083E01E3
:101AC00003020103020103020103020103020104F4
:101AD0000A010302010302010302010302010302DE
:101AE00001040201030201030201030201030201D6
:101AF000030201040A0103020103020103020103BC
:101B00000201030201040A010302010302010302AC
:101B100001030201030201040A010302010302019D
:101B2000030201030201030201040A01030201038B
:101B30000201030201030201030201050000FF008C
:101B4000020400081E0007FF000C641E0B141E0B8D
:101B5000D81E0B141E0BD81E0B141E0BD81E05000E
:101B600000FF0002040008320007FF000C64000BB5
:101B7000641E0B9C1E0B641E0B9C1E050000FF00C8
:101B800002040008010007FF000CFF000B641E08A0
:101B9000011E08011E08011E050000FF00020000D2
:101BA00008010007FF0009B4000A50000C28000BD0
:101BB0006464050000FF0002040008500007FF00F5
:101BC00009B4000A50000C28000B9C32050000FFED
:101BD0000002030008280007640009B4000A0A0193
:101BE000050000FF0002030008280007C80009B430
:101BF000000A0A00FF0002040000FB000834010391
:101C00000201030401030601040A010302010304A3
:101C100001030601040A0103020103040103060192
:101C20000405010302010304010306020302020387
:101C3000040203060304050303020303040303066B
:101C40000404050403020403040403060105000060
:101C5000FF0002040000FB00083E01030201030232
:101C600001030201030201030201040A010302014C
:101C70000302010302010302010302010402010342
:101C80000201030201030201030201030201040A2B
:101C90000103020103020103020103020103020125
:101CA000040501030201030201030201030201030F
:101CB0000201040501030201030201030201030200
:101CC00001030201040501030201030201030201F1
:101CD000030201030201050000FF0002040000F8F6
:101CE00000085003084E03085402084C020858022A
:101CF000084A01085C0000FC03086003085A030856
:101D00006003085A03086003085A01050000FF0039
:101D100000EC0001020107000207FF00010300FFC1
:101D20000000ED00010602010100FF0001030000B8
:101D3000E203010604010903050000FF00010000A1
:101D400007A00000EC0100FE00010100FF000101FE
:101D50000007900000E208050000FF00010A0000F3
:101D6000E202010501010301010102050000FF007B
:101D700000F405030C05040C05030C05040C050513
:101D80000000FF0002040000D800084C14FF00020D
:101D9000040000D800084814FF0002040000D80026
:101DA000083C0AFF0002040000D80008540AFF00A3
:101DB00002040007F00008410108410107E00008A3
:101DC0003F01083E0107D000083D01083D0107C062
:101DD00000083D01083D0107B000083D01083C0135
:101DE00007A000083C01083D01079000083D0108DC
:101DF0003D01078000083E01083E01083F010770D1
:101E000000083F0107600008400108410107500039
:101E1000084101074000084101084201073000085D
:101E2000420108430107200008440107100008444C
:101E30000108450107000008450108460108460160
:101E400008470308480108480108490108490108F2
:101E50004901084A01084201084100070000050045
:101E600000FF000002040007C000085803085B03DD
:101E7000085E03070000082F0007000007000007A6
:101E80000000050000FF000002040308340007F012
:101E90000107E00008390007F00107E00107D00062
:101EA00008340007F00107E00107D00008390007F7
:101EB000F00107E00107D00008340007F00107E057
:101EC0000107D00008390007F00107E00107D00042
:101ED00008340007F00107E001070000082F0007A1
:101EE0000000070000070000050000FF00000204DA
:101EF0000008640007E001070000070000085F0019
:101F000007F00108640007E00108640007E0010829
:101F1000640007E00108640007E00108640007E0CE
:101F20000108640007E00108640007E0010864009C
:101F300007E00108640007E00108640007E0010809
:101F4000640007E00108640007E00108640007E09E
:101F50000108640007E001086B0007E001086B005E
:101F600007E001086B0007E001086B0007E00108CB
:101F70006B0007E001086B0007E001086B0007E059
:101F800001086B0007E001086B0007E001086B0027
:101F900007E001086B0007E001086B0007E001089B
:101FA0006B0007E001086B0007E00108770007E01D
:101FB0000108770007E00108770007E001087700D3
:101FC00007E00108770007E00108770007E0010853
:101FD000770007E00108770007E00108770007E0D5
:101FE0000108770007E00108770007E001087700A3
:101FF00007E00108770007E00008000007E002089A
:10200000000007E00008000007E00208000007E009
:102010000008000007E002070000070001050000BB
:10202000FF000002040007F00008480B07F000085A
:10203000510B07F00008480B07F00008470B07F0AA
:102040000008510B07F00008480B07F00008460B8A
:1020500007F000084F0B07F00008480B07000007C7
:10206000C000084800070000070000070000070044
:10207000000700000700000700000700000700003D
:1020800007000007000007C00008450007C000085F
:10209000413207000007000007000207000007B0F8
:1020A0000008480007000007000B07B000084A0BB3
:1020B00007B000084C0B07B000084D0B07000007E5
:1020C0000000070038050000FF0000020400083986
:1020D0000007C00008390007900108390007C00058
:1020E00008390007900108390007C00008390007C7
:1020F000900108390007C00008390007900108392D
:102100000007C00008390007900108390007C00027
:1021100008390007900108390007C0000839000796
:10212000900108390007C0000839000790010839FC
:102130000007C00008390007900108390007C000F7
:1021400008390007900108460007D000084500073D
:10215000A00108450007C000084500079001084697
:102160000007C00008450007900108450007C000AF
:1021700008450007900108460007C0000845000711
:10218000900108450007C000084500079001084677
:102190000007C00008450007900108450007C0007F
:1021A00008450007900108460007C00008460007E0
:1021B000800108450007C000084600077001084676
:1021C0000007C00008460007700108450007C0006E
:1021D00008460007700108460007C00008460007CF
:1021E000700108450007C000084600077001084656
:1021F0000007C00008460007700108450007C0003E
:1022000008460007700107000007000108360007B4
:102210004000084A00072001083600073000084A3D
:1022200000071001083600072000084A00070001D7
:10223000070000050000FF00000204000846000738
:10224000F00108460007E00108470007E0010848E0
:102250000007E00108490007D001084A0007D00143
:10226000084C0007C001084D0007C001084F0007D7
:10227000B00108460007F00108460007E0010847E2
:102280000007E00108480007E00108490007D00105
:10229000084A0007D001084C0007C001084D00079C
:1022A000C001084F0007B00108460007F0010846CA
:1022B0000007E00108470007E00108480007E001C7
:1022C00008490007D001084A0007D001084C000760
:1022D000C001084D0007C001084F0007B00107000A
:1022E00001070001070001070001070001070001C5
:1022F000070000070001070002050000FF000002C0
:10230000000007C800FF0002030007640006000089
:1023100009B4000A3C00FF0002030007640000EC5F
:1023200000FF11111111111111012122227222221B
:102330002201212422662622240121222222222275
:10234000220121222622222622012122262525269B
:1023500022017122262222267201212226252526EB
:102360002201212226222226220121222222222289
:1023700022012124226626222401212222722222E5
:102380002201111111111111110133333333333380
:10239000333333331111113133333333215222317B
:1023A0003333131121722211113313222266262294
:1023B0001233132246224226123313752622227626
:1023C0001533132246224226123313222266262276
:1023D000123313112172221111333333215222315E
:1023E0003333333311111131333333333333333325
:1023F0003333333333333333333333131111111155
:102400003333331122722212313313216266662272
:10241000113313222422222412331362222525622F
:102420001233136722222262173313622225256298
:1024300012331322242222241233132162666622CD
:10244000113333112272221231333313111111114E
:10245000333333333333333333333333333333334C
:102460003333111111111111113121221172122165
:102470002231212411221221243121221122122160
:102480002231212226252526223171662622226626
:1024900076312122262525262231212211221221C0
:1024A00022312124112212212431212211721221E0
:1024B00022311111111111111131333333333333EF
:1024C0003333111111111111113121221272122203
:1024D0002231212412221222243121621622126674
:1024E00022312162222222622231216222252562AA
:1024F0002231111127222217113121622225256252
:1025000022312162222222622231216216221266A7
:10251000223121241222122224312122127212226B
:10252000223111111111111111313333333333337E
:102530003333111111111111113151222272222242
:10254000523121226666662622312122222222224F
:1025500022312126224222222631712622242422BF
:1025600076312126224222222631212222222222B3
:1025700022312122666666262231512222722222CF
:1025800052311111111111111131333333333333EE
:10259000333333333333333333333333333333330B
:1025A00033333313111111113333331327522217DD
:1025B0003333331362666612333333136224641287
:1025C00033333313652262153333331362246412B9
:1025D00033333313626666123333331327522217B1
:1025E0003333331311111111333333333333333363
:1025F000333333333333333333333333131111330F
:1026000033333333137212333333333313421233CE
:10261000333333331366163333331111112212114E
:102620001131216226252566223171642622226617
:1026300074312162262525662231111111221211D1
:1026400011313333136616333333333313421233BA
:1026500033333333137212333333333313111133B0
:10266000333333111111111131231321222222226C
:10267000112311222424242412212122226626221D
:10268000222171622222226272212162222222628E
:102690002221216266226266222121622222226296
:1026A00022217162222222627221212222662622A6
:1026B0002221112225252525122113212222222221
:1026C000112333111111111131231111333333132C
:1026D000113171123333331372312112113313114B
:1026E00022312122123313222231212212111122EE
:1026F00022314162222222624231216252255562F8
:1027000022314162222222624231212212111122FF
:1027100022312122123313222231211211331311BB
:1027200022317112333333137231111133333313B6
:1027300011311111111111111131412222222222C4
:102740004231212222522222223111116166661168
:10275000113171222252222272312122222222227E
:1027600022311111612666111131212222222222E9
:1027700022317122225222227231111161666611B8
:1027800011312122225222222231412222222222CE
:1027900042311111111111111131111111111111B8
:1027A0001131712222172722723121222212222274
:1027B00022312126211222212631212621122221F5
:1027C00026312126211222212631212621222221D1
:1027D00026312126211222212631212421122221D3
:1027E000243121222112222122312124215222218D
:1027F00024312122215525212231111111111111CC
:1028000011311111111111111131712222222222C3
:10281000723121622622226622312122264222267C
:102820002231212526222226253121222642222636
:10283000223121222622222622312122264222262C
:102840002231212526222226253121222642222616
:102850002231216226222266223171222222222264
:102860007231111111111111113133331111113153
:1028700033333333517252313333333321222231E4
:10288000333333332142223133333333616666319C
:1028900033333333214222313333333371227231B4
:1028A000333333332142223133333333616666317C
:1028B0003333333321422231333333332122223134
:1028C00033333333517252313333333311111131C6
:1028D00033331111013333333333517231333333E3
:1028E000333321221111113333332122262217339E
:1028F0003333212426221233333361264222151129
:1029000011312122252222222231111121222422B9
:102910006631333321222622243133337122262299
:1029200022313333111111512231333333333321F7
:102930007231333333333311113133333311313394
:102940003333333333513133333333331151113163
:102950003333333321522231333333112152221195
:102960003133332162666622313311212222222241
:102970001131212227272727223121222222222218
:1029800022312166666666662631212224242424AB
:102990002231212222222222223111111111111160
:1029A0001131333313111133333333331372123381
:1029B00033333311112212113133332122422222B7
:1029C00031331121666666261131212226522226D4
:1029D000223171425622524672312122265222263B
:1029E00022311121666666261131332122422222CC
:1029F0003133331111221211313333331372123345
:102A000033333333131111333333111111111111C6
:102A10001131212222222222223121652227222441
:102A20002731216222222222223121621211111128
:102A30001131216422222222223121625222526249
:102A40002731212222222262243111111111116217
:102A5000223121222222226222312142227222624A
:102A6000253121222222222222311111111111118C
:102A70001131111111111111113121226626222259
:102A800072312122662622222231211211111111C6
:102A90007231511222222212223151124422222258
:102AA000223151122221112222315112442222229A
:102AB000223121122222221222312112111111114E
:102AC00072312122662622222231212266262222EA
:102AD0007231111111111111113111111111111145
:102AE00011317122221222227231216222122262BB
:102AF000223121662622226626312162222222628A
:102B00002231212222242522223111214224552240
:102B10001131212222242522223121622222226205
:102B20002231216626222266263121622212226269
:102B3000223171222212222272311111111111112E
:102B400011318C49864980497A4974496E496849EE
:102B500062495C49564950494A4944493E493849C5
:102B600032492C49264920491A4914490E49084935
:102B70000249FC48F648F048EA48E448DE48D848AC
:102B8000D248CC48C6480000000000000000000009
:102B90000000000000000000000000000000000035
:102BA0000000000000000000000000000000000025
:102BB0000000000000000000000000000000000015
:102BC000000000000000FEFEFEFEFEFEFEFEFEFE19
:102BD000FEFEFEFEFEFEFEFEFEFFFEFEFEFFFEFE13
:102BE000FEFFFEFEFFFEFEFEFFFFFEFEFFFEFEFFFF
:102BF000FEFFFEFEFFFEFEFEFEFFFEFEFFFEFEFEF1
:102C0000FEFFFEFEFFFEFEFEFEFEFEFEFEFEFEFEE2
:102C1000FEFEFEFEFEFEFFFEFEFEFFFFFEFEFEFFD0
:102C2000FEFFFEFEFFFEFEFFFEFFFEFEFFFEFEFFBE
:102C3000FEFFFEFEFFFEFEFFFEFFFEFEFFFEFEFFAE
:102C4000FEFFFEFEFFFEFEFEFEFFFEFEFFFEFEFEA0
:102C5000FEFFFEFEFFFEFEFEFEFFFEFEFFFEFEFE90
:102C6000FEFFFEFEFFFEFEFEFEFFFEFEFFFEFEFF7F
:102C7000FFFFFFFEFEFFFEFEFEFEFEFEFEFEFEFE70
:102C8000FEFEFEFEFEFEFEFFFEFFFEFEFFFEFEFF60
:102C9000FEFFFEFEFFFEFEFFFEFFFEFEFFFEFEFF4E
:102CA000FEFFFEFEFFFEFEFFFEFFFEFEFFFEFFFE3E
:102CB000FEFEFFFFFEFEFEFEFEFEFEFEFEFEFEFE32
:102CC000FEFEFEFEFEFEFEFEFEFEFEFEFEFEFEFE24
:102CD000FEFEFEFEFEFEFEFEFEFEFFFEFEFFFEFE12
:102CE000FEFFFFFEFFFEFEFEFFFEFFFEFFFEFEFFFD
:102CF000FEFEFFFEFFFEFEFFFEFEFFFEFFFEFEFFEE
:102D0000FEFEFFFEFFFEFEFFFFFFFFFEFFFEFEFEDC
:102D1000FEFEFFFEFFFEFEFEFEFEFFFEFFFEFEFECF
:102D2000FEFEFFFEFFFEFEFEFEFEFFFEFFFEFEFEBF
:102D3000FEFEFFFEFEFFFEFEFEFEFEFEFEFEFEFEB1
:102D4000FEFEFEFEFEFEFEFEFEF7F7F7F7FEFEFEBF
:102D5000FEF70000F738FEFE30F70000F738FE30CF
:102D600030F7F7F7F738FE30303030383838FE308B
:102D7000070707070706FE3007003F3F003FFE300A
:102D800007003F3F003FFEF7F7F7F7FEFEFE30F784
:102D90000000F7FEFEFE30F70000F730FEFE30F7D1
:102DA000F7F7F73030FE38383838383838FE06074D
:102DB0000706060730FE3F003F3F000730FE3F009A
:102DC0003F3F000730FEFE3007003F3F003FFE3030
:102DD000070707070707FE30303030303030FEFE7F
:102DE000303030303030FEFEFEFE30FEFEFEFEFEA5
:102DF0003030303030FEFEFE30FE30FE30FEFEFE63
:102E0000FEFEFEFEFEFE3F003F3F000730FE0707CE
:102E10000707070730FE30303030303030FE3030BA
:102E200038383038FEFEFEFEFE30FEFEFEFEFEFEB0
:102E3000FE30FEFEFEFEFE3030303030FEFEFE3054
:102E4000FE30FE30FEFEFEFEFEF7F7F7F7FEFEFE5A
:102E5000FEF70000F730FEFE30F70000F730FE30DE
:102E600030F7F7F7F730FE38383838383838FE3072
:102E7000070606070706FE3007003F3F003FFE300B
:102E8000070000000000FEF7F7F7F7FEFEFE38F738
:102E90000000F7FEFEFE38F70000F730FEFE38F7C0
:102EA000F7F7F73030FE38383830303030FE06076C
:102EB0000707070730FE3F003F3F000730FE0000D6
:102EC0000000000730FEFE3007003F3F003FFE30AD
:102ED000070707070707FE30303030303030FEFE7E
:102EE000383038383030FEFEFEFE30FEFEFEFEFE8C
:102EF000FEFE30FEFEFEFEFE3030303030FEFEFEC6
:102F000030FE30FE30FE3F003F3F000730FE070737
:102F10000707070730FE30303030303030FE3030B9
:102F200030303030FEFEFEFEFE30FEFEFEFEFE3095
:102F300030303030FEFEFE30FE30FE30FEFEFEFE53
:102F4000FEFEFEFEFEFEFEFFFFFFFFFEFEFFFEFF9B
:102F50000000FF3838FFFEFF0000FF3838FFFEFF9B
:102F6000FFFFFF3838FFFE38383838383838FE076A
:102F7000070606070706FE3E3D00003E3E00FE0037
:102F8000000000000000FFFFFFFEFEFEFEFE00004E
:102F9000FF3838FEFEFE0000FF383030FEFEFFFF37
:102FA000FF30303030FE38383830303030FE0607F1
:102FB0000707303030FE003F3E07383030FE00005B
:102FC0000007383030FEFE3E3E00003E3E00FE3E32
:102FD0003F00003F3F00FE06060606060606FE38D6
:102FE000383038383838FEFEFE3030303030FEFEB3
:102FF000FEFE30FEFEFEFE2828283028FEFEFE30B3
:10300000FE30FE30FEFE003E3E07383030FE003F10
:103010003F07383030FE06060606303030FE3838BE
:1030200038303030FEFE3830303030FEFEFEFEFEEE
:1030300030FEFEFEFEFE2828302828FEFEFE30FE72
:1030400030FE30FEFEFEFEFFFFFFFFFEFEFFFEFF36
:103050000000FF3838FFFEFF0000FF3838FFFEFF9A
:10306000FFFFFF3838FFFE38383838383838FE0769
:10307000070606070706FE06060606060606FE3EC5
:103080003E00003E3E00FFFFFFFEFEFEFEFE000093
:10309000FF3838FEFEFE0000FF383030FEFEFFFF36
:1030A000FF30303030FE38383830303030FE0607F0
:1030B0000707303030FE06060607383030FE003E87
:1030C0003E07383030FEFE3E3E00003E3E00FE062B
:1030D000060606060606FE06060606060606FE386E
:1030E000383038383838FEFEFE3030303030FEFEB2
:1030F000FEFE30FEFEFE3030303030FEFEFE30FE92
:1031000030FE30FEFEFE003E3E07383030FE060642
:103110000607383030FE06060606303030FE3838F6
:1031200038303030FEFE3830303030FEFEFEFEFEED
:1031300030FEFEFEFEFEFE3030303030FEFEFE3051
:10314000FE30FE30FEFEFEFEFEFEFEFFFFFFFEFE38
:10315000FE3838FF0000FEFE303038FF0000FE3041
:10316000303030FFFFFFFE30303030383838FE303E
:10317000303007070706FE303038073E3F00FE308C
:10318000303807000000FFFEFEFFFFFFFFFEFF38A4
:1031900038FF0000FFFEFF3838FF0000FFFEFF3859
:1031A00038FFFFFFFFFE38383838383838FE06075A
:1031B0000706060707FE003E3E00003D3EFE0000FB
:1031C0000000000000FEFE303038073E3E00FE30BA
:1031D0003038073F3F00FE30303006060606FEFE60
:1031E000303030383838FEFEFE3030303038FEFEB9
:1031F000FEFEFE30FEFEFEFEFE2828302828FEFEE3
:10320000FE30FE30FE30003E3E00003E3EFE003FFF
:103210003F00003F3EFE06060606060606FE38385C
:103220003838303838FE3030303030FEFEFEFEFEAA
:10323000FE30FEFEFEFEFEFE2830282828FEFEFEA2
:1032400030FE30FE30FEFEFEFEFEFEFFFFFFFEFE05
:10325000FE3838FF0000FEFE303038FF0000FE3040
:10326000303030FFFFFFFE30303030383838FE303D
:10327000303007070706FE30303807060606FE30F6
:103280003038073E3E00FFFEFEFFFFFFFFFEFF3827
:1032900038FF0000FFFEFF3838FF0000FFFEFF3858
:1032A00038FFFFFFFFFE38383838383838FE060759
:1032B0000706060707FE06060606060606FE003E89
:1032C0003E00003E3EFEFE303038073E3E00FE30FF
:1032D000303807060606FE30303006060606FEFECB
:1032E000303030383838FEFEFE3030303038FEFEB8
:1032F000FEFEFE30FEFEFEFE3030303030FEFEFEC2
:1033000030FE30FE30FE003E3E00003E3EFE060631
:103310000606060606FE06060606060606FE3838F9
:103320003838303838FE3030303030FEFEFEFEFEA9
:10333000FE30FEFEFEFEFEFEFE3030303030FEFE81
:10334000FE30FE30FE30FEFEFEFEFEFEFEFEFEFE07
:10335000FEF7FEFEFEFEFEFEFEFEFEFEFEFEFEF79B
:10336000FEFEFEFEFEFEFEFEFE0000F7F7FEFEFE87
:10337000FE0000F7F738FEFE30F7F7F7F738FE30BB
:1033800030F7F7F7F738FEFEFEFEFEFEFEFEF7FE14
:10339000FEFEFEFEFEFEFEFEFEFEFEFEFEFEFEFE4D
:1033A000FEFEFEFEF7FEFE0000F7F7FEFEFE30001A
:1033B00000F7F7FEFEFE30F7F7F7F730FEFE30F7C6
:1033C000F7F7F73030FEFE30303030383838FE3026
:1033D000070707070706FE3007003F3F003FFE30A4
:1033E00007003F3F003FFE3007003F3F003FFE30F9
:1033F000070707070707FE30303030303030FEFE59
:1034000030303030303038383838383838FE060709
:103410000706060730FE3F003F3F000730FE3F0033
:103420003F3F000730FE3F003F3F000730FE0707E9
:103430000707070730FE30303030303030FE303094
:1034400038383038FEFEFEFEFEFEFEFEFEFEFEFEBC
:10345000FEF7FEFEFEFEFEFEFEFEFEFEFEFEFEF79A
:10346000FEFEFEFEFEFEFEFEFEF7F70000FEFEFE86
:10347000FEF7F7000030FEFE30F7F7F7F730FE30CA
:1034800030F7F7F7F730FEFEFEFEFEFEFEFEF7FE1B
:10349000FEFEFEFEFEFEFEFEFEFEFEFEFEFEFEFE4C
:1034A000FEFEFEFEF7FEFEF7F70000FEFEFE38F71A
:1034B000F70000FEFEFE38F7F7F7F730FEFE38F7AC
:1034C000F7F7F73030FEFE38383838383838FE3005
:1034D000070606070706FE3007003F3F003FFE30A5
:1034E00007003F3F003FFE3007003F3F003FFE30F8
:1034F000070707070707FE30303030303030FEFE58
:1035000038303838303038383830303030FE060710
:103510000707070730FE3F003F3F000730FE3F0030
:103520003F3F000730FE3F003F3F000730FE0707E8
:103530000707070730FE30303030303030FE303093
:1035400030303030FEFEFEFEFEFEFEFEFEFEFEFED3
:10355000FEFEFEFEFEFEFEFEFE07FEFEFEFEFEFE82
:10356000070707FEFE38FEFEFE07FEFEFEFEFEFE1D
:10357000FEFE3FFE3838FEFEFEFEFEFEFE38FEFE7C
:10358000FEFEFEFEFEFEFEFEFEFEFEFEFEFEFEFE5B
:10359000FEFEFEFEFEFE38FEFEFEFEFEFEFE38389D
:1035A000FEFEFEFEFEFE38FEFEFEFEFEFEFEFEFE01
:1035B000FEFEFEFEFEFEFEFEFEFEFEFEFEFE07FE22
:1035C0003FFEFEFEFEFEFEFEFEFE38FEFE07FEFE97
:1035D000FEFEFEFEFEFEFEFEFEFEFEFE3FFEFEFECA
:1035E000FEFEFEFEFEFEFEFEFEFEFEFEFEFEFEFEFB
:1035F000FEFEFEFEFEFEFEFEFEFEFEFEFEFEFEFEEB
:10360000FEFEFEFEFEFE0707FEFEFEFEFEFE07FEBF
:10361000FE3FFEFEFEFEFEFE3F3F3FFEFEFEFEFEC6
:10362000FE3FFE38FEFEFEFEFEFE38FEFEFEFEFE05
:10363000FEFEFEFEFEFEFEFEFEFEFEFEFEFEFEFEAA
:10364000FEFEFEFEFEFEFEFEFE07FEFEFEFEFEFE91
:10365000070707FEFEFEFE0707070707FEFE070730
:103660000707070707FEFE0707070707FEFEFEFE20
:10367000070707FE3838FEFEFE07FE383838FEFE24
:10368000FEFE38FE3838FEFEFEFEFEFEFEFEFEFEAC
:10369000FEFEFEFEFEFE38FEFEFEFEFEFEFE38389C
:1036A000FEFEFEFEFEFE38FEFEFEFEFEFEFEFE38C6
:1036B000FEFEFEFEFEFE38FE3FFEFEFEFEFEFE3F6E
:1036C0003F3FFEFEFEFEFEFEFE383838FE38FEFEB0
:1036D000FEFE38FE3FFEFEFEFEFEFE3F3F3FFEFECC
:1036E000FEFEFEFE3FFEFEFEFEFEFEFEFEFEFEFEB9
:1036F000FEFEFEFEFEFEFEFEFEFEFEFEFEFEFEFEEA
:10370000FEFEFEFEFEFEFEFE3FFEFEFEFEFE07FE8F
:10371000FE3FFEFEFEFEFEFE3F3F3FFEFEFE07FEBC
:10372000FE3FFE3838FEFEFEFEFE3838FEFEFEFE90
:10373000FEFE38FEFEFEFEFEFEFEFEFEFEFEFEFE6F
:10374000FEFEFEFEFEFEFEFEFEFEFEFEFEFEFEFE99
:10375000FEFEFEFEFEFEFEFEFE07FEFEFEFEFEFE80
:10376000070707FEFEFEFEFEFE07FE3FFE38FEFEDA
:103770003FFEFEFE3838FEFEFEFE38FEFE38FEFE40
:10378000FE383838FEFEFEFEFEFEFEFEFEFEFEFEAB
:10379000FEFEFEFEFEFEFEFEFEFEFEFEFEFEFEFE49
:1037A000FEFEFEFEFEFEFEFEFEFEFEFEFEFE38FEFF
:1037B0003FFEFEFEFEFEFE3F3F3FFEFEFEFE3F3FA3
:1037C0003F3F3FFEFEFEFEFE3838383838FEFEFE34
:1037D000FE383838FE3FFEFEFEFE38FE3FFEFEFE9F
:1037E000FEFEFE3F3F3FFEFEFEFEFEFE3FFEFEFEF5
:1037F000FEFEFEFEFEFEFEFEFEFEFEFEFEFEFEFEE9
:10380000FEFEFEFEFEFEFE3F3F3FFEFEFEFEFEFE15
:103810003FFEFEFEFEFE3F3FFE3F3FFEFEFEFE3F42
:103820003F3FFEFEFEFEFEFE3FFEFEFEFEFEFEFEF5
:10383000FEFEFEFEFEFEFEFEFEFEFEFEFEFEFEFEA8
:10384000FEFEFEFEFEFEFEFEFEFEFEFEFEFEFEFE98
:10385000FEFEFEFEFEFEFEFEFEFEFEFEFEFEFEFE88
:10386000FEFEFEFEFEFEFEFEFEFE3FFEFEFEFEFE37
:10387000FE3F3F3FFEFEFEFEFEFEFEFEFEFEFEFEA5
:10388000FEFE38FEFEFEFEFEFEFEFEFEFEFEFEFE1E
:10389000FEFEFEFEFEFEFEFEFEFEFEFEFEFEFEFE48
:1038A000FEFEFEFEFEFEFEFEFEFEFEFEFEFEFEFE38
:1038B000FEFEFEFEFEFEFEFE3FFEFEFEFEFEFE3FA6
:1038C0003F3FFEFEFEFEFEFEFE383838FEFEFEFEE8
:1038D000FEFE38FE3FFEFEFEFEFEFE3F3F3FFEFECA
:1038E000FEFEFEFE3FFEFEFEFEFEFEFEFEFEFEFEB7
:1038F000FEFEFEFEFEFEFEFEFEFEFEFEFEFEFEFEE8
:10390000FEFEFEFEFEFEFEFE3FFEFEFEFEFEFEFE96
:10391000FEFEFEFEFEFEFE3F3F3FFEFEFEFEFEFE04
:103920003FFEFEFEFEFEFEFEFEFEFEFEFEFEFEFE76
:10393000FEFEFEFEFEFEFEFEFEFEFEFEFEFEFEFEA7
:10394000FEFEFEFEFEFEFEFEF6F6F7F7F7FEFEFEBC
:10395000F6000000F738FEFEF6000000F738FE30F3
:10396000F6000000F738FE38F6F6F6F6F638FE30C8
:10397000380606070706FE30060600000000FE3087
:10398000070000000000FEF7F7F7F7F6FEFE38F636
:10399000000000F6FEFE38F6000000F6FEFE38F6E7
:1039A000000000F630FE38F6F6F6F6F630FE0607B2
:1039B0000707063830FE00000000060730FE000052
:1039C0000000000730FEFE30070000000000FE305F
:1039D000070600000000FE30300606060606FEFE62
:1039E000383038383030FEFEFEFE30FEFEFEFEFE81
:1039F000FEFE30FEFEFEFEFE3030303030FEFEFEBB
:103A000030FE30FE30FE00000000000730FE0000F7
:103A10000000070730FE06060606063030FE30308E
:103A200030303030FEFEFEFEFE30FEFEFEFEFE308A
:103A300030303030FEFEFE30FE30FE30FEFEFEFE48
:103A4000FEFEFEFEFEFEFEF7F6F6F7F7F7FEFEF7C9
:103A500000000000F7FEFEF700000000F7FEFEF792
:103A600000000000F7FEFEF7000007070707FEF75B
:103A7000F70707000000FE30060700000000FE30D8
:103A8000070000000000FEF7F7F7F7F6F7FEFEF676
:103A900000000000F7FEFEF600000000F7FEFEF654
:103AA00000000000F7FE070707070000F7FE000010
:103AB000000707F7F7FE00000000060730FE0000D1
:103AC0000000000730FEFE30070000000000FE305E
:103AD000070600000000FE30300606000000FEFE73
:103AE000383007070707FEFEFE3830383838FEFE4C
:103AF000FEFE30383838FEFEFEFEFEFEFEFEFEFE06
:103B0000FEFEFEFEFEFE00000000000730FE00008C
:103B10000000070730FE00000006063030FE0707F1
:103B200007073030FEFE3838383038FEFEFE3838B1
:103B30003038FEFEFEFEFEFEFEFEFEFEFEFEFEFE39
:103B4000FEFEFEFEFEFEFEFEFEFEFEFEFEFEFEFE95
:103B5000FEFEFEFEFEFEFEFEFEFE06060606FEFE65
:103B6000FE06FEFEFEFEFEFE06FEFEFEFEFEFE065D
:103B7000FEFEFEFEFEFE06FEFEFEFEFEFEFE06FE55
:103B8000FEFEFEFEFEFEFEFEFEFEFEFEFEFEFEFE55
:103B9000FEFEFEFEFEFE06060606FEFEFEFEFEFE25
:103BA000FEFE06FEFEFEFEFEFEFEFE06FEFEFEFE25
:103BB000FEFEFEFE06FEFEFEFEFEFEFEFE06FEFE15
:103BC000FEFEFEFEFE0606FEFEFEFEFEFEFE06FEFD
:103BD000FEFEFEFEFEFE06FEFEFEFEFEFEFEFE06F5
:103BE000FEFEFEFEFEFEFEFE06FEFEFEFEFEFEFEED
:103BF000FE06FEFEFEFEFEFEFEFE06060606FEFEBD
:103C0000FEFEFEFEFEFEFEFEFEFEFEFEFE06FEFECC
:103C1000FEFEFEFEFE06FEFEFEFEFEFEFE06FEFEB4
:103C2000FEFEFEFE06FEFEFEFEFEFE06FEFEFEFEA4
:103C3000FEFE06FEFEFE06060606FEFEFEFEFEFE7C
:103C4000FEFEFEFEFEFEFEFEFEFEFEFEFEFEFEFE94
:103C5000FEFEFEFEFEFEFEFEFEFEFEFEFEFEFEFE84
:103C6000FEFEFEFEFEFEFEFEFEFEFEFEFE06FEFE6C
:103C7000FEFEFEFEFE06FEFEFEFEFEFEFE06FEFE54
:103C8000FEFEFEFEFEFEFEFEFEFEFEFEFEFEFEFE54
:103C9000FEFEFEFEFEFEFEFEFEFEFEFEFEFEFEFE44
:103CA000FEFEFEFEFEFEFEFEFEFEFEFEFEFEFEFE34
:103CB000FEFEFEFEFEFEFEFEFEFEFEFEFEFEFEFE24
:103CC000FEFEFEFEFEFEFEFE06060606FEFEFEFEF4
:103CD000FEFEFEFEFEFEFEFEFEFEFEFEFE06FEFEFC
:103CE000FEFEFEFEFE06FEFEFEFEFEFEFE06FEFEE4
:103CF000FEFEFEFEFEFEFEFEFEFEFEFEFEFEFEFEE4
:103D0000FEFEFEFEFEFEFE06060606FEFEFEFEFEB3
:103D1000FEFEFEFEFEFEFEFEFEFEFEFEFEFEFEFEC3
:103D2000FEFEFEFEFEFEFEFEFEFEFEFEFEFEFEFEB3
:103D3000FEFEFEFEFEFEFEFEFEFEFEFEFEFEFEFEA3
:103D4000FEFEFEFEFEFEFEFEFEFEFEFEFEFEFEFE93
:103D5000FEFEFEFEFEFEFEFEFEFEFEFEFEFEFEFE83
:103D6000FEFEFEFEFEFEFEFEFEFEFEFEFE06FEFE6B
:103D7000FEFEFEFEFE06FEFEFEFEFEFEFEFEFEFE5B
:103D8000FEFEFEFEFEFEFEFE06060606FEFEFEFE33
:103D9000FEFEFEFEFEFEFEFEFEFEFEFEFEFEFEFE43
:103DA000FEFEFEFEFE06FEFEFEFEFEFEFE06FEFE23
:103DB000FEFEFEFEFEFEFEFEFEFEFEFEFEFEFEFE23
:103DC000FEFEFEFEFEFEFEFEFEFEFEFEFEFEFEFE13
:103DD000FEFEFEFEFEFEFEFEFEFEFEFEFEFEFEFE03
:103DE000FEFEFEFEFEFEFEFEFEFEFEFEFE06FEFEEB
:103DF000FEFEFEFEFEFEFEFEFEFEFEFEFEFEFEFEE3
:103E0000FEFEFEFEFEFEFEFE0606FEFEFEFEFEFEC2
:103E1000FEFEFEFEFEFEFEFEFEFEFEFEFEFEFEFEC2
:103E2000FEFEFEFEFEFEFEFEFEFEFEFEFE06FEFEAA
:103E3000FEFEFEFEFEFEFEFEFEFEFEFEFEFEFEFEA2
:103E4000FEFEFEFEFEFEFEFEFE0606FEFEFEFEFE82
:103E5000FEFEFEFEFEFEFEFEFEFEFEFEFEFEFEFE82
:103E6000FEFEFEFEFEFEFEFEFEFEFEFEFEFEFEFE72
:103E7000FEFEFEFEFEFEFEFEFEFEFEFEFEFEFEFE62
:103E8000FEFEFEFEFEFEFEFEFEFEFEFEFEFEFEFE52
:103E9000FEFEFEFEF6F6FEFEFEFEF6F6F6F6FEFE72
:103EA000FEF6F6F6F6F6FEFEF6F6F6F6F6F6FEFE8A
:103EB000F6F6F6F6F6F6FEFEF6AFAFAF01AFFEFE93
:103EC000F6AFAFAF01AFFEFEEBF6FEFEFEFEF6076D
:103ED000EBF607FEFEFEF6F6F607E707FEFEF6F641
:103EE000F6F607E7FEFEF6F6F6F6F607FEFEF6F63F
:103EF000F6F6F607FEFE01AFAFAFF6FE2FFE01AFFE
:103F0000AFAFF6FEFE2FFEFEFEF6AFAFAFAFFEFE8A
:103F1000EBF6F6F6F6F6FEFEEBF6F6F6F6F6FEFE37
:103F2000EBF6F6F6F6F6FEFEFEF6F6F6F6F6FEFE14
:103F3000FE01F6F6F6F6FEFEFE0101F6F601FEFEC5
:103F4000FEFEFE010101AFAFAFF6FEFEFE2FF6F65C
:103F5000F6F6EBFE2FFEF6F6F6F6EBFEFE2FF6F685
:103F6000F6F6EBFEFEFEF6F6F6F6FEFEFEFEF6F6C4
:103F7000F601FEFEFEFEF6F60101FEFEFEFE01016A
:103F8000FEFEFEFEFEFEFEFEEBF6FEFEFEFEF6076B
:103F9000EBF607FEFEFEF6F6F607E707FEFEF6F680
:103FA000F6F607E7FEFEF6F6F6F6F607FEFEF6F67E
:103FB000F6F6F607FEFE01AFAFAFF6FE2FFE01AF3D
:103FC000AFAFF6FE2FFEFEFEFEF6AFAFAFAFFEFECA
:103FD000FEEBF6F6F6F6FEFEFEF6F6F6F6F6FEFE5C
:103FE000FEF6F6F6F6F6FEFEFEF6F6F6F6F6FEFE41
:103FF000FE01F6F6F6F6FEFEFE0101F6F601FEFE05
:10400000FEFE01F6F601AFAFAFF6FEFE2FFEF6F6AE
:10401000F6EBEBFEFE2FF6F6F6F6EBEBFE2FF6F6E2
:10402000F6F6EBEBFEFEF6F6F6EBEBEBFEFEF6F647
:104030000101EBFEFEFE010101FEFEFEFEFE01019E
:10404000FEFEFEFEFEFEFEFEFEF6AFAFAFAFFEFED4
:10405000EBEBF6F6F6F6FEEBEBF6F6F6F6F6FEEB27
:10406000EBF6F6F6F6F6FEEBEBEBF6F6F6F6FEFE04
:10407000EB0101F6F6F6FEFEFEFE01010101FEFE79
:10408000FEFEFE010101AFAFAFF6FE2FFEFEF6F61B
:10409000F6EBFEFE2FFEF6F6F6F6FEFE2FFEF6F629
:1040A000F6F6FEFEFEFEF6F6F6F6FEFEFEFEF6F670
:1040B000F601FEFEFEFEF6F60101FEFEFEFEF6F63F
:1040C00001FEFEFEFEFEFEFEFEFEF6F6F6FEFEFE25
:1040D000FEFEF6F6F6F6FEFEF6F6F6F6F6F6F6F660
:1040E000F6F6F6F6F6F6AF01AF01AFAFAFAFAF0140
:1040F000AF01AFAFAFAFFEAFAFAFAFAFAFF6FEFE4A
:10410000F6F6F6F6F6EBFEFEFEFEEBF6FEFEF6FE2D
:10411000FEFEEBF6FEFEF6F6FEFEEBF6FEFEF6F615
:10412000F6FEEBF6FEFEF6F6F607EBEB07FEF6F60E
:10413000F60707E7E707F6F6F6070707E707EBFED8
:1041400007070707E707FEF6F6F6F6F6F6EBFEF6C4
:10415000F6F6F6F6F6EBFEF6F6F6F6F6EBEBFEFE08
:10416000F6F6F6F6EBEBFEFE0101F6F6F601FE01C1
:10417000F6F6F6F6F601FE01010101010101FEFE6F
:10418000010101010101EBF6070707070707EBF63D
:10419000070707070707EBFEFEFE07E7FEFEF6FE32
:1041A00007070707070701FEFEFE2FFEFEFE0101BF
:1041B000FE012F0101FE010101012F01010101FE9C
:1041C000FE01012F2FFEFEFEFEFEEBF6FEFEF6FECA
:1041D000FEFEEBF6FEFEF6F6FEFEEBF6FEFEF6F655
:1041E000F6FEEBF6FEFEF6F6F607EBEB07FEF6F64E
:1041F000F60707E7E707F6F6F6070707E707EBF620
:1042000007070707E707FEF6F6F6EBEBF6EBFEF619
:10421000F6F6EBEBEBEBFEFEF6F6EBEBEBF6F6FE73
:10422000F6F6F6F6F6F6FEF6F6F6010101010101E4
:10423000F6010101F6F60101010101010101FE0192
:10424000010101010101EBF6070707070707F6F671
:10425000070707070707F6FEFEFE07E7FEFEF6F66E
:10426000070707070707F6F6FEFE2FFEFEFEF6F627
:10427000FE01012F01FE01010101012F010101FEDB
:10428000FE012F2F01FEFEFEFEFEF6F6F6FEFEFEFE
:10429000FEFEF6F6F6F6FEFEF6F6F6F6F6F6F6F69E
:1042A000F6F6F6F6F6F6AF01AF01AFAFAFAFAF017E
:1042B000AF01AFAFAFAFFEAFAFAFAFAFAFF6EBEBAE
:1042C000F6F6F6F6F6F6FEFEFEFEEBF6FEFEF6FE61
:1042D000FEFEEBF6FEFEF6F6FEFEEBF6FEFEF6F654
:1042E000F6FEEBF6FEFEF6F6F607EBEB07FEF6F64D
:1042F000F60707E7E707F6F6F6070707E707EBEB2A
:10430000EB070707E707EBF6F6F6F6F6F6F6FEF626
:10431000F6F6F6F6F6F6FEF6F6F6F6F6F6F6FEFE25
:10432000F6F6F6F6F6F6FE0101F6F601010101F6E3
:10433000F6F6F601F6F60101010101010101FE01A7
:10434000010101010101F6EBEBEB07070707F6F6A8
:10435000EBEB07070707F6EBEBEBE7E7FEFEF6EB09
:10436000EB0707070707F6F6FEFE2FFEFEFEF60137
:10437000FE2F010101FE0101012F0101010101FEDA
:10438000FE012F2F2F2FFEFEF6EBFEFEFEFEFEFEA1
:10439000F6EBFEFEFEF6FEFEF6EBFEFEF6F6FEFE8B
:1043A000F6EBFEF6F6F6FE07EBEB07F6F6F607E79A
:1043B000E70707F6F6F607E7070707F6F6F607E753
:1043C00007070707FEEBFEF6F6F6FEFEFEFEF6F624
:1043D000F6F6FEFEFEFEF6F6F6F6F6F6FEFEF6F64D
:1043E000F6F6F6F6F6F6AFAFAFAF01AF01AFAFAF8F
:1043F000AFAF01AF01AFF6AFAFAFAFAFAFFEEBF610
:10440000F6F6F6F6FEFE070707070707F6EB0707BF
:1044100007070707F6EBFEFEE707FEFEFEEB0707C2
:1044200007070707FEF6FEFEFE2FFEFEFE01FE0159
:10443000012F01FE01010101012F01010101FE2FE8
:104440002F0101FEFE01EBF6F6F6F6F6F6FEEBF6B0
:10445000F6F6F6F6F6FEEBEBF6F6F6F6F6FEEBEB18
:10446000F6F6F6F6FEFE01F6F6F60101FEFE01F6A0
:10447000F6F6F6F601FE01010101010101FE01015E
:1044800001010101FEFEFEFEF6EBFEFEFEFEFEFE5B
:10449000F6EBFEFEFEF6FEFEF6EBFEFEF6F6FEFE8A
:1044A000F6EBFEF6F6F6FE07EBEB07F6F6F607E799
:1044B000E70707F6F6F607E7070707F6F6F607E752
:1044C00007070707F6EB070707070707F6EB0707D6
:1044D00007070707F6F6FEFEE707FEFEFEF60707EC
:1044E00007070707F6F6FEFEFE2FFEFEF6F6FE01B4
:1044F0002F0101FEF6F601012F0101010101FE016C
:104500002F2F01FEFE01EBF6EBEBF6F6F6FEEBEBE2
:10451000EBEBF6F6F6FEF6EBEBEBF6F6FEFEF6F65A
:10452000F6F6F6F6FEF601010101F6F6F6FEF6F6EF
:10453000010101F601010101010101010101010176
:104540000101010101FEFEFEF6EBFEFEFEFEFEFE97
:10455000F6EBFEFEFEF6FEFEF6EBFEFEF6F6FEFEC9
:10456000F6EBFEF6F6F6FE07EBEB07F6F6F607E7D8
:10457000E70707F6F6F607E7070707F6F6F607E791
:10458000070707EBEBEBFEF6F6F6FEFEFEFEF6F691
:10459000F6F6FEFEFEFEF6F6F6F6F6F6FEFEF6F68B
:1045A000F6F6F6F6F6F6AFAFAFAF01AF01AFAFAFCD
:1045B000AFAF01AF01AFF6AFAFAFAFAFAFFEF6F643
:1045C000F6F6F6F6EBEB07070707EBEBEBF607075C
:1045D0000707EBEBF6F6FEFEE7E7EBEBEBF607077C
:1045E000070707EBEBF6FEFEFE2FFEFEF6F6FE01DA
:1045F00001012FFE01F6010101012F0101012F2F01
:104600002F2F01FEFE01F6F6F6F6F6F6F6EBF6F6BD
:10461000F6F6F6F6F6FEF6F6F6F6F6F6F6FEF6F62A
:10462000F6F6F6F6FEFE010101F6F60101FEF6F6DB
:1046300001F6F6F6F6010101010101010101010196
:104640000101010101FEFEFEFEFEFEFEFEF6FEFE83
:10465000FEFEFEFEF6F6FEFEFEFEF6F6F6F6FEFEAA
:10466000FEF6F6F6F6F6FEFEFEF6F6F6F607FEFEA9
:10467000FEF6F6F6F607FEFEFEF6F6F6F607FEFE88
:10468000FEFEEBAFAF07F6EBEBFEFEFEFEFEF6EB3B
:10469000EBF6FEFEFEFEF6EBEBF6F6FEFEFE07EB9D
:1046A000EB07F6FEFEFE07EBEB0707F6FEFE07073D
:1046B00007E707F6FEFE0707E7E707F6FEFE070730
:1046C00007E707FEFEFEFEFEFEEBEBF6F607FEFE3C
:1046D000FEEBF6F6F6F6FEFEFEFEF6F6F6F6FEFE4D
:1046E000FEFE01F6F6F6FEFEFE010101F6F6FEFE06
:1046F000FE0101010101FEFEFEFE01010101FEFEBF
:10470000FEFEFEFE01010707070707EBFEFE070797
:104710000707F6EBFEFEF60707F6F6FEFEFEF607C7
:104720002FF6FEFEFEFE01F62F0101FEFEFE010148
:104730002F0101FEFEFE012F0101FEFEFEFE010122
:104740002F2FFEFEFEFEF6EBEBFEFEFEFEFEF6EB70
:10475000EBF6FEFEFEFEF6EBEBF6F6FEFEFE07EBDC
:10476000EB07F6FEFEFE07EBEB0707F6FEFE07077C
:1047700007E707F6EBFE0707E7E707F6EBFE070795
:1047800007E707EBEBFEFEFEFEEBEBF6F607FEFEA1
:10479000FEEBEBF6F6F6FEFEFEEBEBF6F6F6FEFEB5
:1047A000FEFE01F6F6F6FEFEFE01010101F6FEFE3A
:1047B000FE0101010101FEFEFEFE01010101FEFEFE
:1047C000FEFEFEFE01010707070707EBFEFE0707D7
:1047D0000707F6EBFEFEF60707F6F6FEFEFEF60707
:1047E0002FF6FEFEFEFEF6F62F0101FEFEFEF62F70
:1047F000F60101FEFEFEF62F0101FEFEFEFE2F2F4A
:10480000FEFEFEFEFEFEFEFEFEFEFEFEFEF6FEFED0
:10481000FEFEFEF6F6F6FEFEFEFEF6F6F6F6FEFEF0
:10482000FEF6F6F6F6F6FEFEFEF6F6F6F607FEFEE7
:10483000FEF6F6F6F607FEFEEBF6F6F6F607FEFED9
:10484000EBEBF6AFAF07FEFEEBEBF6F6F607FEFE80
:10485000FEF6F6F6F6F6FEFEFEFEF6F6F6F6FEFEC0
:10486000FEFEF6F6F6F6FEFEFE0101F6F6F6FEFE9A
:10487000FE0101F6F6F6FEFEFEFE0101F6F6FEFE74
:10488000FEFEFEFE01010707070707EBFEFE070716
:104890000707EBEBFEFEF60707F6EBEBFEFEF6076F
:1048A0002F01FEFEFEFEF6012F0101FEFEFE012F8E
:1048B000010101FEFEFE2F010101FEFEFEFE012FA1
:1048C0002F2F2F2FFEFE0202726C737402026B6F89
:1048D000707102026B6C6D6E02026768696A020297
:1048E0006461656602026061626302025C5D5E5F34
:1048F000020255595A5B02025556575802024C5053
:10490000535402024C50515202024C4D4E4F02027F
:1049100049444A4B02024744484602024344454642
:1049200002023F40414202023B3C3D3E0202373818
:10493000393A02023334353602022F303132020264
:104940002B2C2D2E02022728292A02020B0C0D0ED9
:1049500002020708090A02022324252602021F2058
:10496000212202021B1C1D1E02021718191A020224
:104970001314151602020F10111202020B0C0D0E69
:1049800002020708090A02020502060402020102E5
:104990000304C48282827882758272826C8266820B
:1049A00060825A8254824E82488242823F823C8296
:1049B00039823682338230822D822A822782248273
:1049C00021821E821B821882158212820F820C8223
:1049D0000982068203820082FA81F481EE81E881F5
:1049E000E281DC81D681D081CA81C481BE81B88157
:1049F000B281AC81A681A0819D819A8197819481A9
:104A000091818E818B818881000000000000000070
:104A10000000000000000000000000000000000096
:104A20000000000000000000000000000000000086
:104A30000000000000000000000000000000000076
:104A400000000000000000000000000000003F3FE8
:104A500000000000003F3F3F000000003F3F3F3F9D
:104A6000000000003F3F3F3F000000003F3F3F3F4E
:104A7000000000003F3F3F3F000000003F3F3F3F3E
:104A8000000000003F3F3F3F3F3F3F3F3F3F3F3F32
:104A90003F3F3F3F3F3F3F3F3F3F3F3F3F3F3F3F26
:104AA0003F3F3F3F3F3F3F3F00000000000000000E
:104AB00000000000000000000000000000000000F6
:104AC00000000000000000003F3F000000003F3FEA
:104AD0003F3F3F0000003F3F3F3F3F3F00003F3F21
:104AE0003F3F3F3F00003F3F3F3F3F3F00003F3FD2
:104AF0003F3F3F3F00003F3F0000000000003F3FBE
:104B00000000000000003F3F3F3F3F3F3F3F3F3F2F
:104B10003F3F3F3F3F3F3F3F3F3F3F3F3F3F3F3FA5
:104B20003F3F3F3F3F003F3F3F3F3F3F0000003F91
:104B30003F3F0000000000000000000000000000F7
:104B40003F3F0000000000003F3F00000000000069
:104B50003F3F3F3F000000003F3F3F3F3F0000001E
:104B60003F3F3F3F3F0000003F3F3F3F3F000000CF
:104B7000003F3F3F3F0000000000003F3F000000BB
:104B8000003F3F3F3F0000000000003F3F3F3F3FEE
:104B90000000003F3F3F3F3F00003F3F3F3F3F3F60
:104BA00000003F3F3F3F3F3F003F3F3F3F3F000050
:104BB000003F3F3F3F0000003F3F3F3F3F000000BE
:104BC0003F3F3F3F3F0000003F3F3F3F00000000AE
:104BD0003F3F3F3F000000003F3F3F3F00000000DD
:104BE0003F3F3F3F000000003F3F3F3F00000000CD
:104BF0003F3F3F3F000000003F3F3F3F00000000BD
:104C00003F3F3F3F00000000000000003F3F3F3FAC
:104C100000003F3F3F3F3F3F003F3F3F3F3F3F3F61
:104C20003F3F3F3F3F3F3F3F3F3F3F3F0000000090
:104C30003F3F3F3F000000003F3F3F3F000000007C
:104C40003F3F3F3F000000003F3F3F3F3F0000002D
:104C50003F3F3F3F3F3F00003F3F3F3F3F3F3F0021
:104C60003F3F3F3F3F3F3F3F000000003F3F3F3F50
:104C7000000000003F3F3F3F000000003F3F3F3F3C
:104C80000000000000000000000000003F3F3F3F28
:104C9000000000003F3F3F3F000000003F3F3F3F1C
:104CA000000000003F3F3F3F000000003F3F3F3F0C
:104CB000000000003F3F3F3F000000003F3F3F3FFC
:104CC000000000003F3F3F3F3F3F3F3F3F3F3F3FF0
:104CD0003F3F3F3F3F3F3F3F3F3F3F3F3F3F3F3FE4
:104CE0003F3F3F3F3F3F3F3F3F3F0000000000004E
:104CF0003F3F0000000000003F3F000000000000B8
:104D00003F3F0000000000003F3F3F000000000068
:104D10003F3F3F00000000003F3F3F000000000019
:104D20003F3F3F00000000000000000000000000C6
:104D30000000000000000000000000000000000073
:104D40000000000000000000000000003F3F3F3F67
:104D5000000000003F3F3F3F00000000003F3F3F9A
:104D60000000000000003F3F0000000000000000C5
:104D70000000000000000000000000003F3F3F3F37
:104D8000000000003F3F3F3F3F3F000000003F3F2B
:104D90003F3F3F0000003F3F3F3F3F3F00003F3F5E
:104DA0003F3F3F3F00003F3F3F3F3F3F00003F3F0F
:104DB0003F3F3F3F00003F3F3F3F3F3F00003F3FFF
:104DC0003F3F3F3F00003F3F3F3F3F3F0000003F2E
:104DD0003F3F3F3F3F003F3F3F3F3F3F3F3F3F3F22
:104DE0003F3F3F3F3F3F3F3F3F3F0000000000004D
:104DF0003F3F0000000000003F3F000000000000B7
:104E00003F3F0000000000003F3F3F3F3F00003FAA
:104E10003F3F3F3F3F00003F3F3F3F3F00003F3F9E
:104E20003F3F000000003F3F00000000003F3F3FC9
:104E300000000000003F3F3F000000003F3F3F3FB9
:104E4000000000003F3F3F3F3F3F3F3F3F3F3F3F6E
:104E50003F3F3F3F3F3F3F3F3F3F3F3F3F3F3F3F62
:104E60003F3F3F00000000003F3F00000000000007
:104E70003F3F0000000000003F0000000000000075
:104E80003F000000000000000000000000000000E3
:104E90000000000000000000000000000000000012
:104EA0000000000000000000000000000000000002
:104EB000000000003F3F3F3F000000003F3F3F3FFA
:104EC000000000003F3F3F3F000000003F3F3F3FEA
:104ED000000000003F3F3F3F00000000003F3F3F19
:104EE0000000000000003F3F000000000000000044
:104EF00000000000000000000000000000000000B2
:104F000000000000000000003F3F3F3F00003F3F27
:104F10003F3F3F3F00003F3F3F3F3F0000003F3FDC
:104F20003F3F000000003F3F000000000000000085
:104F30000000000000000000000000000000000071
:104F400000000000000000003F3F000000000000E3
:104F50003F3F0000000000003F3F00000000000055
:104F60003F3F0000000000000000000000000000C3
:104F70000000000000000000000000000000000031
:104F800000000000000000000000003F3F3F3F3FE6
:104F90000000003F3F3F3F3F00003F3F3F3F3F009B
:104FA00000003F3F3F3F3F000000000000000000C6
:104FB00000000000000000000000000000000000F1
:104FC00000000000000000003F3F3F3F00000000E5
:104FD0003F3F3F3F000000003F3F3F3F00000000D9
:104FE0003F3F3F3F000000000000000000000000C5
:104FF00000000000000000000000000000000000B1
:1050000000000000000000003F3F3F3F3F3F3F3FA8
:10501000003F3F3F3F3F3F3F00003F3F3F3F3F3F5D
:10502000000000003F3F3F3F000000000000000084
:105030000000000000000000000000000000000070
:1050400000000000000000003F3F3F3F3F3F3F3F68
:105050003F3F3F3F3F3F3F3F3F3F3F3F3F3F3F009F
:105060003F3F3F3F3F3F00000000000000000000C6
:105070000000000000000000000000000000000030
:105080000000000000000000000000003F3F3F3F24
:10509000000000003F3F3F3F000000003F3F3F3F18
:1050A000000000003F3F3F3F000000000000000004
:1050B00000000000000000000000000000000000F0
:1050C0000000000000000000000000003F3F3F3FE4
:1050D000000000003F3F3F3F0000003F3F3F3F3F99
:1050E0000000003F3F3F3F3F00003F3F3F3F000089
:1050F00000003F3F3F000000003F3F3F3F000000F7
:10510000003F3F3F3F000000000000003F3F3F3FA7
:105110000000003F3F3F3F3F00003F3F3F3F3F3FDA
:10512000003F3F3F3F3F3F3F3F3F3F3F00000000CA
:105130003F3F3F3F000000003F3F3F3F0000000077
:105140003F3F3F3F000000003F3F3F3F3F3F0000E9
:105150003F3F3F3F3F3F3F003F3F3F3F3F3F3F3F9E
:105160003F3F3F3F3F3F3F3F000000003F3F3F3F4B
:10517000000000003F3F3F3F000000000000000033
:10518000000000000000000000003F3F3F3F000023
:10519000003F000000003F003F00003F3F00003F95
:1051A0003F003F000000003F3F003F000000003F85
:1051B0003F00003F3F00003F003F000000003F0075
:1051C00000003F3F3F3F00000000000000000000E3
:1051D0000000000000000000000000000000003F90
:1051E000000000000000003F0000000000003F3F02
:1051F0000000000000003F3F00000000003F3F3F74
:1052000000000000003F3F3F3F3F3F3F3F3F3F3FE9
:105210003F3F3F3F3F3F3F3F3F3F3F3F3F3F3F3F9E
:105220003F3F3F3F000000003F3F3F0000000000C5
:105230003F3F3F00000000003F3F00000000000033
:105240003F3F0000000000000000000000000000E0
:105250003F3F3F3F3F3F3F3F3F3F3F3F3F3F3F3F5E
:105260003F3F3F3F3F3F3F3F000000003F3F3F3F4A
:10527000000000003F3F3F3F0000003F3F3F3F3FF7
:1052800000003F3F3F3F3F3F3F0000000000000065
:105290003F000000000000003F0000000000000090
:1052A0003F000000000000000000000000000000BF
:1052B00000000000000000000000000000000000EE
:1052C0000000000000000000000000003F3F3F3FE2
:1052D000000000003F3F3F3F0000003F3F3F3F3F97
:1052E0000000003F3F3F3F3F000000000000000083
:1052F00000000000000000000000000000000000AE
:1053000000000000000000003F000000000000005E
:105310003F0000000000000000000000000000004E
:10532000000000000000000000000000000000007D
:10533000000000000000000000000000000000006D
:105340000000000000000000003F3F3F3F3F3F3FA4
:1053500000003F3F3F3F3F3F0000003F3F3F3F3F98
:10536000000000003F3F3F3F000000000000000041
:10537000000000000000000000000000000000002D
:1053800000000000000000003F3F3F3F3F3F3F3F25
:105390003F3F3F3F3F3F3F3F3F3F3F3F003F3F3F5C
:1053A0003F3F3F00003F3F3F000000000000000083
:1053B00000000000000000000000000000000000ED
:1053C00000000000000000000000000000000000DD
:1053D000000000F900000000000000B20000000022
:1053E000000000B3000000000000006C000000009E
:1053F0000000000000000000000000260000000087
:10540000000000000000000000000000000000009C
:105410000000F90000F900000000B20000B2000036
:10542000000000000000000000000000000000007C
:10543000000000000000000000000000000000006C
:10544000000000000000000000000000000000005C
:105450000000F90000F9000000B2B2B2B2B2B2002E
:105460000000B30000B3000000006C00006C0000FE
:10547000006D6D6D6D6D6D00000026000026000052
:10548000000000000000000000000000000000001C
:1054900000000000F90000000000B2B2B2B2B20099
:1054A0000000B300B300000000006C6C6C6C6C007A
:1054B000000000006D006D00000026262626260054
:1054C00000000000270000000000000000000000B5
:1054D00000F9F9000000F90000B2B20000B20000CB
:1054E00000000000B30000000000006C000000009D
:1054F00000006D00006D6D000026000000262600F3
:10550000000000000000000000000000000000009B
:10551000000000F9000000000000B200B20000002E
:10552000000000B30000000000006C006C006C0084
:10553000006D0000006D00000000262626002600F9
:10554000000000000000000000000000000000005B
:1055500000000000F9000000000000B200000000A0
:10556000000000000000000000000000000000003B
:10557000000000000000000000000000000000002B
:10558000000000000000000000000000000000001B
:1055900000000000F9F9F90000000000B20000006E
:1055A00000000000B3000000000000006C6C000070
:1055B000000000006D6D000000000000262626009F
:1055C00000000000000000000000000000000000DB
:1055D00000F9F9F900000000000000B2000000002E
:1055E000000000B30000000000006C6C0000000030
:1055F00000006D6D0000000000262626000000005F
:10560000000000000000000000000000000000009A
:105610000000000000000000000000B200B2000026
:1056200000000000B300000000006C6C6C6C6C00AB
:10563000000000006D0000000000002600260000B1
:10564000000000000000000000000000000000005A
:10565000000000000000000000000000B200000098
:1056600000000000B300000000006C6C6C6C6C006B
:10567000000000006D000000000000002600000097
:10568000000000000000000000000000000000001A
:10569000000000000000000000000000000000000A
:1056A00000000000000000000000000000000000FA
:1056B000000000006D000000000000002600000057
:1056C00000000027000000000000000000000000B3
:1056D00000000000000000000000000000000000CA
:1056E000000000000000000000006C6C6C6C6C009E
:1056F00000000000000000000000000000000000AA
:105700000000000000000000000000000000000099
:105710000000000000000000000000000000000089
:105720000000000000000000000000000000000079
:105730000000006D6D000000000000262600000043
:105740000000000000000000000000000000000059
:105750000000000000000000000000000000B20097
:105760000000000000B30000000000006C0000001A
:105770000000006D00000000000026000000000096
:105780000000000000000000000000000000000019
:105790000000F9F9F9F9F9000000B2000000B200C8
:1057A0000000B3000000B300006C6C6C00006C00E3
:1057B000006D6D6D00006D00002626262626260051
:1057C00000000000000000000000000000000000D9
:1057D000000000F9F900000000000000B200000025
:1057E00000000000B3000000000000006C0000009A
:1057F00000006D6D6D6D6D000000262626262600CA
:105800000000000000000000000000000000000098
:105810000000F9F9F9F9F900000000000000B200F9
:1058200000B3B3B3B3B3B300006C6C00000000006E
:10583000006D6D00000000000026262626262600AA
:105840000000000000000000000000000000000058
:1058500000F9F9F9F9F900000000000000B20000B9
:1058600000B3B3B3B3B3000000000000006C6C00E1
:1058700000000000006D6D0000262626262626006A
:105880000000000000000000000000000000000018
:1058900000F900000000000000B20000000000005D
:1058A00000B3000000B3B300006C0000006C6C009B
:1058B000006D6D6D6D6D6D0000000000002626000E
:1058C00000000000000000000000000000000000D8
:1058D00000F9F9F9F9F9F90000B200000000000040
:1058E00000B3B3B3B3B3B3000000000000006C001A
:1058F00000000000006D6D000026262626262600EA
:105900000000000000000000000000000000000097
:1059100000F9F9F9F9F9000000B2000000000000F8
:1059200000B3B3B3B3B3B300006C6C0000006C0001
:10593000006D6D6D00006D000026262626262600CF
:105940000000000000000000000000000000000057
:1059500000F9F9F9F9F9F900000000000000B200BF
:10596000000000000000B3000000006C6C6C6C00D4
:105970000000006D6D000000000000262600000001
:105980000000000000000000000000000000000017
:105990000000F9F9F9F9F9000000B2000000B200C6
:1059A0000000B3B3B3B3B300006C6C0000006C0034
:1059B000006D6D0000006D000026262626262600BC
:1059C00000000000000000000000000000000000D7
:1059D00000F9F9F9F9F9F90000B200000000B2008D
:1059E00000B300000000B300006C6C6C6C6C6C00C9
:1059F00000000000006D6D00000000000026260081
:105A00000000000000000000000000000000000096
:105A10000000000000000000000000000000000086
:105A2000000000B3000000000000000000000000C3
:105A30000000000000000000000000260000000040
:105A40000000000000000000000000000000000056
:105A50000000000000000000000000B20000000094
:105A60000000000000000000000000000000000036
:105A70000000006D00000000000000260000000093
:105A800000002700000000000000000000000000EF
:105A900000F9F9F9F9F9F90000B2B20000000000CC
:105AA00000B3B30000000000006C6C6C000000004C
:105AB000006D6D6D000000000026262626262600BB
:105AC00000000000000000000000000000000000D6
:105AD00000000000000000000000000000000000C6
